S01F00004D435350544531414B3134345F424C44435F36537465702E737265633E
S1130000007000201104000059040000590400008D
S113001059040000590400005904000000000000C5
S1130020000000000000000000000000590400006F
S11300305904000000000000590400003181000050
S1130040654100006D410000754100007D410000E4
S1130050854100008D410000954100009D41000054
S1130060A5410000AD410000B5410000BD410000C4
S1130070C5410000CD410000D5410000DD41000034
S1130080E54100005904000059040000590400002F
S113009059040000590400005904000059040000E8
S11300A05904000059040000756000007D600000E0
S11300B08560000059040000590400005904000040
S11300C059040000590400005904000059040000B8
S11300D059040000590400005904000059040000A8
S11300E04D90000059040000590400005904000018
S11300F05904000059040000590400005904000088
S1130100359100005904000059040000590400000E
S1130110818F0000590400005904000059040000B4
S11301205904000059040000590400005904000057
S11301305904000059040000590400004D8F0000C8
S11301405904000059040000590400005904000037
S1130150A98F00005904000059040000590400004C
S11301605904000059040000590400005904000017
S11301705904000059040000590400005904000007
S113018059040000590400005904000059040000F7
S113019059040000590400005904000059040000E7
S11301A059040000590400005904000059040000D7
S11301B059040000590400005904000059040000C7
S11301C0590400005904000059040000E1490000EA
S11301D0714A0000FD4A0000894B000059040000E8
S11301E059040000154C0000A54C0000314D0000DE
S11301F0BD4D00005904000059040000494E0000A0
S1130200D94E0000654F0000F14F00005904000072
S1130210590400007D5000000D5100009951000068
S1130220255200005904000059040000590400003C
S11302305904000059040000590400005904000046
S11302405904000059040000590400005904000036
S11302505904000059040000590400005904000026
S11302605904000059040000590400005904000016
S11302705904000059040000590400005904000006
S113028059040000590400005904000059040000F6
S113029059040000590400005904000059040000E6
S11302A059040000590400005904000059040000D6
S11302B059040000590400005904000059040000C6
S11302C059040000590400005904000059040000B6
S11302D059040000590400005904000059040000A6
S11302E05904000059040000590400005904000096
S11302F05904000059040000590400005904000086
S11303005904000059040000590400005904000075
S11303105904000059040000590400005904000065
S11303205904000059040000590400005904000055
S11303305904000059040000590400005904000045
S11303405904000059040000590400005904000035
S11303505904000059040000590400005904000025
S11303605904000059040000590400005904000015
S11303705904000059040000590400005904000005
S113038059040000590400005904000059040000F5
S113039059040000590400005904000059040000E5
S11303A059040000590400005904000059040000D5
S11303B059040000590400005904000059040000C5
S11303C059040000590400005904000059040000B5
S11303D059040000590400005904000059040000A5
S11303E05904000059040000590400005904000095
S11303F0590400005904000059040000FFFFFFFFE6
S1130400FFFFFFFFFFFFFFFFFFFFFFFFFE7FFFFF79
S113041072B64FF000014FF000024FF000034FF0AE
S113042000044FF000054FF000064FF00007B846F7
S1130430B946BA46BB46BC4604488546044880478C
S11304400448804762B609F019FAFEE700700020FC
S1130450091C0000451C0000FFF7FEBF53B94AB950
S1130460002908BF00281CBF4FF0FF314FF0FF30B8
S113047000F07EB9ADF1080C6DE904CE00F006F889
S1130480DDF804E0DDE9022304B070472DE9F0470C
S1130490089D04468E46002B4ED18A4294466DD95F
S11304A0B2FA82F757B1C7F1200EB94020FA0EFE16
S11304B002FA07FC4EEA010E00FA07F44FEA1C495F
S11304C0210CBEFBF9F61FFA8CF809FB16EE41EA83
S11304D00E4106FB08F38B420AD91CEB010106F11D
S11304E0FF3280F027818B4240F22481023E614436
S11304F0C91AA4B2B1FBF9F009FB101144EA014492
S113050000FB08F8A0450AD91CEB040400F1FF33F2
S113051080F00E81A04540F20B810238644440EA29
S11305200640A4EB080400267DB1FC4000232C60A7
S11305306B603146BDE8F0878B4209D9002D00F08D
S11305401481002685E8030030463146BDE8F08773
S1130550B3FA83F6002E40F090808B4202D382429D
S113056000F2FD80841A61EB030101208E46002D08
S1130570EBD085E810403146BDE8F0871AB94FF05A
S1130580010CBCFBF2FCBCFA8CF7A7BBA1EB0C037F
S11305904FEA1C421FFA8CF80126B3FBF2FE210C31
S11305A002FB1E3341EA034108FB0EF38B4208D9D8
S11305B01CEB01010EF1FF3002D28B4200F2D1801C
S11305C08646C91AA3B2B1FBF2F002FB101143EA4A
S11305D0014408FB00F8A04508D91CEB040400F111
S11305E0FF3302D2A04500F2B7801846A4EB0804FA
S11305F040EA0E4098E7C7F1200301FA07F40CFA29
S113060007FC20FA03FED9404FEA1C424EEA040ECE
S1130610B1FBF2F64FEA1E4302FB16111FFA8CF8E7
S113062043EA014306FB08F1994200FA07F40AD9A8
S11306301CEB030306F1FF3080F08C80994240F2FA
S11306408980023E63445B1A1FFA8EF1B3FBF2F019
S113065002FB103341EA034100FB08F38B4208D943
S11306601CEB010100F1FF3E70D28B426ED90238BF
S11306706144CB1A40EA06468FE7C6F1200722FA06
S113068007F8B34001FA06F448EA030320FA07FC2A
S11306904FEA134EF9404CEA040CB1FBFEF94FEA61
S11306A01C440EFB19111FFA83F844EA014109FBAB
S11306B008F48C4202FA06F200FA06FA08D959182C
S11306C009F1FF3044D28C4242D9A9F102091944FC
S11306D0091B1FFA8CFCB1FBFEF00EFB10114CEA57
S11306E0014400FB08F8A04507D91C1900F1FF31AB
S11306F02AD2A04528D902381C4440EA0940A4EB78
S11307000804A0FB02894C45C446494616D313D0BD
S113071055B1BAEB0C0364EB010404FA07F7F34098
S11307201F43F4402F606C6000263146BDE8F0871B
S11307301846F4E61646DBE6C245E9D2B8EB020CED
S113074069EB03010138E3E70846D6E7704690E712
S11307508146BDE7064676E70238644446E73046FC
S113076005E7AEF1020E61442BE72E462846ECE67F
S1130770704700BF70B4084B0848094E094D002269
S1130780FF244FF0FF311A605A609A60DA600470F7
S11307903160297070BC70472800002004000020DC
S11307A03800002000000020134B1A78FF2A03D0E1
S11307B0872300F8013B70474278013AD2B2202ADD
S11307C015D810B504460D48A178028019704AB9AD
S11307D0204600230A4C0B4A00F8013BFE212370FB
S11307E0117010BDE11C084801F066F8F0E785239C
S11307F000F8013B704700BF000000200200002009
S113080005000020040000200800002070B5184AEC
S1130810184D11782B78994204460FD0517899429B
S113082020D0917899421FD0D2789A421ED0124B90
S11308301878607000232370A01C70BD00210F4A3B
S113084052F82160002EF2D00D4A0E491288184643
S1130850B047094A6070FF232B7000231070237087
S1130860A01C70BD0121EAE70221E8E70321E6E7C5
S11308703800002000000020040000202800002090
S113088002000020080000200F4B1B78FF2B03D030
S1130890872300F8013B704742783C2A0FD80B4964
S11308A08378097813448B4203DD862300F8013BE7
S11308B07047002300F8013B054900F087BF8423FB
S11308C000F8013B704700BF000000200500002035
S11308D00800002008B500F021FE00F02BFC00F019
S11308E0F3F9FFF747FF00F0DBFC003018BF0120ED
S11308F008BD00BF70B5054682B0002001F046F97E
S11309002B78C22B00F0048115D9D32B00F005817C
S113091036D8C52B7BD040F2C280C62B00F0EB80CA
S1130920C92B40F0FF80012001F030F9284600F087
S113093043FB044634E00B2B00F0E28011D8052B76
S113094038D040F28B80062B00F00A810A2B40F04D
S1130950E980012001F01AF9284600F0EDFB044675
S11309601EE0122B58D040F29380C02B00F09E80E2
S1130970C12B40F0D780284600F096FA04460FE0D9
S1130980E12B31D050D9E22B00F0D180E62B40F09E
S1130990C980012001F0FAF8284600F003FE04465D
S11309A0AC421ED0611B2846C9B200F031FC0120C4
S11309B002B070BD012001F0E9F8E91C01A8AC788F
S11309C001F002F9214606460122019800F0FEFDDD
S11309D0002840F0EB8089232C4604F8013BAC420C
S11309E0E0D1002002B070BD01202C1801F0CEF837
S11309F0214601A801F0E8F800220221019800F044
S1130A00E5FD002840F0C98089232B70C8E72846FB
S1130A1000F0E0FB0446C3E7012001F0B7F82846E4
S1130A2000F096FD0446BBE7E02B7BD101202C1897
S1130A3001F0ACF8214601A801F0C6F8002201211A
S1130A40019800F0C3FD0028DED000232B7020465F
S1130A500122019900F0BAFE0446A1E7042B61D1FA
S1130A60012001F093F8AC78E91C01A801F0ACF87E
S1130A7021460022019800F0A9FD002800F088809A
S1130A803C2C40F29A802C46842304F8013B87E7EF
S1130A90102B47D12846FFF787FE044680E7C32B77
S1130AA040D1284600F062FA044679E700233C224C
S1130AB0022103240120AA712B70AB706B716C703E
S1130AC02971E87000F064FAEC1D0146204600F03C
S1130AD085FF48F2320100F081FF3D4A0446193097
S1130AE0134613F8011B04F8011B002918BF1A460A
S1130AF08442F5D154E72846FFF788FE04464FE7C1
S1130B00012001F043F8284600F0ECF8044647E7DA
S1130B10284600F001FA044642E72846FFF7B4FEEF
S1130B2004463DE72C46812304F8013B38E70120C5
S1130B302C1801F02BF8214601A801F045F80022F9
S1130B400421019800F042FD00283FF45DAF00232A
S1130B502B7020460422019900F038FE04461FE75A
S1130B60012001F013F8E91C01A8AC7801F02CF87D
S1130B70214606460122019800F028FD00283FF492
S1130B802AAF22463146019800F030FF002323E7C4
S1130B902C46892304F8013B02E700232B702046EE
S1130BA00222019900F012FE0446F9E6224631467B
S1130BB0019800F081FE00230EE72846002300F888
S1130BC0013B2246019900F001FE0446E8E600BF1D
S1130BD0E89D0000037843B10346002013F8012F79
S1130BE0013080B2002AF9D170471846704700BF1F
S1130BF0054A064B126893F9003092F900009842B6
S1130C00B4BF002001207047440000205020002081
S1130C10044A054B12681B781078984234BF0020B0
S1130C20012070474400002050200020054A064B54
S1130C301268B3F90030B2F900009842B4BF002042
S1130C40012070474400002050200020044A054B36
S1130C5012681B881088984234BF00200120704716
S1130C604400002050200020044A054B12681B68F1
S1130C7010689842B4BF002001207047440000204F
S1130C8050200020044A054B12681B6810689842E3
S1130C9034BF002001207047440000205020002071
S1130CA0074B084A1B68D2ED007A93ED007AB4EE44
S1130CB0E77AF1EE10FA54BF01200020704700BF1C
S1130CC04400002050200020034A044B04491160D2
S1130CD000221A70704700BF4000002094210020B9
S1130CE0500000202DE9F84F584982780A70584A7C
S1130CF0584B594DDFF8A881002414708146574A97
S1130D005748136009F1030100F04EFE01465548AF
S1130D1000F04AFE0146544800F046FE014653489E
S1130D2000F052FF02782A70514A43781370811CF4
S1130D30504800F03FFE027888F80020013A072A64
S1130D4029D8DFF860A14C4F00F1010B26460AE0D8
S1130D5057F8240000F03AFC0134E4B240B398F8A8
S1130D600030A3422AD9594607EB840011F8015BED
S1130D700AF8045000F028FF2E442946013D072DAF
S1130D80F6B283464FF00002E2D94846862300F8C3
S1130D90013BBDE8F88F4846852300F8013BBDE8D8
S1130DA0F88F324B2C491868097800F00FFC28BBE7
S1130DB04846892300F8013BBDE8F88F234B2F4CAC
S1130DC01B7800222260002BEBD1254B1B8813FBE0
S1130DD006F6B6B2B6F5005FD7D8204B28491A6894
S1130DE01B4B1B7816441A4A0E6043F00103484615
S1130DF01370002300F8013BBDE8F88F1C4B1B78EF
S1130E009A0702D51F4B2360DFE7134A1278022AA0
S1130E100BD0042A11D0012AB7D11B4A1B49002B3D
S1130E200CBF13460B462360CFE7194A1949002B20
S1130E300CBF13460B462360C7E7174A1749002B1C
S1130E400CBF13460B462360BFE700BF9021002070
S1130E509421002050000020480000204000002081
S1130E60882100209A21002098210020440000209D
S1130E703C00002050200020582100204C0000207D
S1130E807C210020A10C0000110C0000F10B0000DB
S1130E904D0C00002D0C0000850C0000690C0000B6
S1130EA08A2100208021002016490B68DB0724D505
S1130EB00B68C3F34003E3B970B40A78124E134CC1
S1130EC03668266063F382020A700A78104D114C6A
S1130ED02B8063F304120A700A78238042F008021C
S1130EE00A700A7842F002020A7070BC00F8013BF2
S1130EF07047012300F8013B7047882300F8013B49
S1130F00704700BF94210020400000209C21002055
S1130F10782100208C210020114A1368D9070ED5AE
S1130F2013689B0707D51368C3F380035BB10023E1
S1130F3000F8013B7047022300F8013B7047882307
S1130F4000F8013B704730B41178064D064C2D88EB
S1130F50258041F00401117030BC00F8013B70475A
S1130F60942100209A2100208E210020074B19682B
S1130F701A6811F0020F0CBF0223012312F0010FB3
S1130F8008BF882300F8013B704700BF942100206C
S1130F904FF40050704700BF064B1B68834207D8CC
S1130FA0084403F50053834234BF002001207047F6
S1130FB00020704740000020124B1A68D2071CD54D
S1130FC01B68C3F3400313F0FF0F03D0872300F81B
S1130FD0013B704700B500F8013B83B00A4A019019
S1130FE01168019800F0D8FD084B01900198198808
S1130FF000F0F4FC03B05DF804FB882300F8013B27
S1131000704700BF94210020400000207821002078
S11310102DE9F047394F3B689D0701D4BDE8F087BF
S1131020374B1C88002C58D1DFF8FC80354998F8E0
S1131030002009881980344E002A5DD0DFF8ECA026
S11310403068DFF8EC901AF8045059F824102A4656
S113105000F04CFB0134306898F80030E4B22844C6
S1131060A3423060EFD8294A29491388096801331B
S11310708142138008D83B7826496FF3C30309687B
S11310803B700023316013803B681C07C6D43B6867
S1131090580719D4204B1B68B3B198471F4B1B78D2
S11310A0022B04BFB0FA80F04009D0B13B68D906E6
S11310B00AD53B685A0707D43B781949194A098865
S11310C0118043F004033B703B685B07A6D5154AC7
S11310D013885BB1013B1380A0E7013C1C80BDE891
S11310E0F0873B7843F010033B70EDE73A7863F305
S11310F041023A70BDE8F0873068B4E794210020DB
S11311008C210020982100209C210020782100209F
S11311107C210020400000204C0000209021002071
S11311209A2100208E2100208A2100208021002085
S113113058210020704700BF2DE9F84F90F8029025
S1131140DFF8888009F1FF36F6B20023072E88F80D
S1131150003027D81C4DDFF878A02E440746013D07
S113116000F1030B5946504611F8014B05F8014FA5
S113117000F02AFD2146013C072C534683464FF0DC
S113118000020AF1040A12D8186800F01FFAA0B18C
S1131190AE42E7D13846002300F8013B88F80090BE
S11311A0BDE8F88F852300F8013BBDE8F88F384689
S11311B0862300F8013BBDE8F88F3846892300F800
S11311C0013BBDE8F88F00BF7820002054200020A8
S11311D058200020F8B50B4D2B787BB1002400F883
S11311E0014B094F094E3A5D56F8241000F0EEFA0F
S11311F001342B78E4B2A342F5D8F8BD882300F873
S1131200013BF8BD54200020782000205820002005
S113121070B41D4B83B01860002933D04C1EE4B267
S113122001340444002210F8013B1344A042DAB212
S1131230F9D15B42DBB2154A03701078144E154B9A
S1131240154D164C40F00100107010786FF34100FA
S11312501070107801316FF38200107031701A68C9
S113126022F480221A601A6842F400221A602B6861
S11312702B22DBB28DF8073022709DF8073003B0C3
S113128070BC70470B46D6E7C8200020CC20002055
S11312908220002018B0064014B006401CB006405E
S11312A030B40D4B0D4D0E4C0E4900221A701878B7
S11312B02A7062F3000018701878227062F34100FB
S11312C018700B6823F400230B600B6843F480232D
S11312D001200B6030BC7047CC200020822000200D
S11312E08120002018B00640814A824913681068A2
S11312F0F0B510600A68C2F3000212F0FF0F83B069
S11313004FEA13430CD01A0634D413F0280F05D037
S1131310794B1B78ADF80630BDF8063003B0F0BD4C
S113132013F0280FFAD0744B1B78DBB22B2B54D05C
S1131330086805072FD57148714F03700C78714DFB
S1131340714E2A7001303860D84344F0100410F014
S1131350C0020C70337008D10878DB0803F0060370
S1131360013362F304102B7008700B786FF3C3031E
S11313700B70D3E765480278002A51D0644E346874
S113138025782B2D00F09880013A013402703460E6
S1131390594A1570B9E70A68D4063ED50878594CFD
S11313A09A1C6FF30410D2B208702270002AB5D0D0
S11313B0554D2878013A1844D2B2C0B22270287030
S11313C0002A6ED14E4B1B68002B00F08980002848
S11313D03AD14A48FFF78EFAA0E70A680878C2F3C0
S11313E0C00282F0010262F3C30008700A68C2F30B
S11313F0C00212F0FF0F91D108680007CBD53F4817
S11314000C783F4F404E3F4D037044F010040130C0
S113141038600C7033702A70A7E73A4C2278C5E71D
S11314200C78384D3B482A7062F300040C700C7839
S113143062F341040C70026822F400220260026824
S113144042F48022026060E70B782C4D2F4F314824
S11314502F4C274E256043F001030B700B78264C6C
S113146062F341030B700B7862F382030B704FF04D
S1131470820C7E2202236A7085F800C03B700368E8
S113148023F480230360036843F400230360336878
S11314902B22DBB28DF8053022709DF8053003B0A5
S11314A0F0BD17490A68002A3FF438AF1A4882424F
S11314B012D300230B6031E70F6891F800C0C7F323
S11314C0800787F0010767F3820C81F800C0096880
S11314D04F073FF55DAF57E7501C137008601DE7D9
S11314E0064B8322184601211A70FFF791FE15E777
S11314F014B00640CC2000201CB0064084200020FC
S1131500C420002081200020802000208220002090
S1131510C820002018B00640C02000200348044919
S1131520044A002303800B8013607047D4200020FA
S1131530D6200020D020002018B1034B1B881B01AB
S11315400380024B18687047D4200020D02000206C
S113155010B582B00346811C002468460193ADF89F
S1131560024000F021FA019A019B147001330193A7
S113157001984FF4817100F031FA0DF10201034634
S1131580BDF80000019307F0CDFCBDF8021004463D
S1131590019800F023FA01900198214600F0FCFA2A
S11315A002B010BD30B5441C83B02146054601A8E5
S11315B000F00AFB0198FFF70DFB002301462B7096
S11315C0204600F00BFA03B030BD00BF2DE9F04314
S11315D04FF0000883B0471804460E461FFA88F0FF
S11315E00DF10601154607F09DFC28B3BDF8063041
S11315F01B09ADF80630ABB15A1E92B2013200EBB2
S11316000212E5B1C368D90709D5990707D58168DE
S1131610C3F38F038C420B4401D3BB4225D2103059
S11316209042EFD108F101080DF106011FFA88F08C
S113163007F078FC0028D9D195B1002016E0C368E2
S1131640D90707D58168C3F38F03A1420B4401D89E
S1131650BB420AD210309042F1D108F10108E3E70D
S113166031462046FFF798FC18B1012003B0BDE8CD
S1131670F083A94626440DF106011FFA89F007F00C
S113168051FC0028D9D08442BDF8063002D3C218D8
S11316909642EAD91B09ADF806301BB300F11008D5
S11316A0002712E058F80C5C284635B1FFF792FA8F
S11316B0AC42284401D38642D7D90137BDF806305D
S11316C0BFB2BB4208F110080CD958F8105C284688
S11316D0002DE7D0FFF77EFAAC422844E2D38642DD
S11316E0E0D8C2E709F10109C5E700BF002A6BD0C1
S11316F02DE9F041041D0D1D531EA84238BFA1421F
S1131700DBB255D30B2A53D9C1F1000E1EF0030EE0
S11317104AD00C780470961EBEF1010FF6B200F1A7
S1131720010701F1010C11D04C784470D61EBEF1B2
S1131730030FF6B200F1020701F1020C06D18C7816
S11317408470161FF6B2C71C01F1030CA2EB0E0243
S1131750D2B2141FC4F38504A3EB0E030134DBB22D
S1131760A500022BEDB211D971447044002301335A
S11317705FFA83FE51F8048B40F8048B7445F6D865
S1131780761BAA42F6B2AC442F4419D09CF8003020
S11317903B70AEB19CF801307B70012E12D09CF8E6
S11317A00230BB70BDE8F0811E4607468C46CDE78B
S11317B00344013811F8012B00F8012F9842F9D1A4
S11317C0BDE8F081BDE8F081704700BF002A72D007
S11317D02DE9F047031D0C1D551EA04238BF994248
S11317E0EDB25CD30B2A5AD94B4213F0030352D007
S11317F00C780470012BA2F10204E4B200F1010799
S113180001F1010C11D04C784470032BA2F10304B4
S1131810E4B200F1020701F1020C06D18C78847065
S1131820141FE4B2C71C01F1030CD21AD2B2161F62
S1131830C6F38506A5EB030E01365FFA8EFE4FEA6A
S11318408608BEF1020F5FFA88F814D919444FF0E4
S1131850000E03440EF1010E5FFA8EF951F804AB49
S113186043F804AB4E45F5D8A4EB08044245E4B272
S1131870C44447440BD09CF800303B703CB19CF806
S113188001307B70012C02D09CF80230BB70013512
S11318902844BDE8F0872C4607468C46C5E7431E1E
S11318A0441911F8012B03F8012FA342F9D1013592
S11318B02844BDE8F0877047002A73D02DE9F0472B
S11318C0031D0C1D551EA04238BF9942EDB25CD3D6
S11318D00B2A5AD94B4213F0030352D00C780470EC
S11318E0012BA2F10204E4B200F1010701F1010CA1
S11318F011D04C784470032BA2F10304E4B200F13C
S1131900020701F1020C06D18C788470141FE4B232
S1131910C71C01F1030CD21AD2B2161FC6F38506F6
S1131920A5EB030E01365FFA8EFE4FEA8608BEF180
S1131930020F5FFA88F814D918444FF0000E0B44D4
S11319400EF1010E5FFA8EF953F804AB40F804ABC4
S11319504E45F5D8A4EB08044245E4B2C4444744D8
S11319600BD09CF800303B703CB19CF801307B708C
S1131970012C02D09CF80230BB70681C0844BDE8FE
S1131980F0872C4607468C46C5E7421E4319084695
S113199010F8014B02F8014F9A42F9D1681C08442F
S11319A0BDE8F087084670470B7803704B784370A6
S11319B0881C7047021D9142034601F1040001D2C4
S11319C0834202D30A681A6070470A781A704A7808
S11319D05A708A789A70CA78DA7070470B0A017064
S11319E0437082B0023002B0704700BF2DE9F04F5F
S11319F08D1883B0002A00F0AF80161D0E44071D19
S1131A000C1DBD4238BFB0422CBF01260026B9428E
S1131A1038BFA0422CBF01240024531E2642DBB24F
S1131A2000F0A280052A40F29F80444214F003048F
S1131A3000F0958007462E7891F800E017F801CB66
S1131A402CEA060C06EA0E064CEA060C012CA2F15E
S1131A50020680F800C0F6B205F1010801F1010E9A
S1131A6025D06E78477891F801C027EA060706EA80
S1131A700C063743032CA2F103064770F6B205F1B6
S1131A80020801F1020E00F1020710D1AE78877846
S1131A9091F802C027EA060706EA0C063743161F28
S1131AA0877005F10308F6B201F1030EC71C151B7C
S1131AB0EDB2A5F1040CCCF3850C1B1B0CF1010C4D
S1131AC0DBB24FEA8C09022B01955FFA89F922D91E
S1131AD0204413190B44A0F1040B21444FF0000AD5
S1131AE053F8045B5BF8042F51F8044B0AF1010A24
S1131AF02C4022EA050222435FFA8AF4A44540F806
S1131B00042BEDD8019BA6EB09064B45F6B2CE4457
S1131B104F44C84420D098F800203B789EF8001029
S1131B2023EA02030A4013433B70AEB198F8012044
S1131B307B789EF8011023EA02030A401343012E26
S1131B407B7009D098F802109EF80220BB780A40F6
S1131B5023EA01031343BB7003B0BDE8F08FA8462A
S1131B601E4607468E46A2E7EE18013D15F8012FE2
S1131B70037811F8014B23EA020322401343B542D0
S1131B8000F8013BF2D103B0BDE8F08F014B1870AF
S1131B90704700BFD82000200A4B82B01B78019107
S1131BA053B903469DF8041003F8021B9DF8052061
S1131BB04270184602B07047034643F8041B1846A7
S1131BC002B07047D82000200E4B1A78034632B971
S1131BD0084610F8022B1A704A785A707047021D92
S1131BE0914201F1040001D2834202D30A681A60CF
S1131BF070470A781A704A785A708A789A70CA7844
S1131C00DA707047D82000204FF0E0220B4BD2F856
S1131C10881D0B4841F47001C2F8881DD2F8341FA6
S1131C2021F08041C2F8341F586042F220114FF66F
S1131C30FF72586819609A60704700BF0020054021
S1131C4020C528D91749184A914208B503D0521A19
S1131C50164808F0B1F81649164A914203D0521AB0
S1131C60154808F0A9F81548154A904203D0121AED
S1131C70002108F0ACF81349134A914203D0521AD8
S1131C80124808F099F8124B12498B4207D0124AB5
S1131C90920804D01846920008F08EF803460F4AC2
S1131CA0136008BD8CB00000F0B500000084FF1F75
S1131CB0F0B50000F0B500006489FF1F00000020AB
S1131CC0C4240020F0B50000F0B50000000000209E
S1131CD00080FF1F000000000004000008ED00E089
S1131CE0F0B585B004AB064600221846412543F8FA
S1131CF00C2D4224584A8DF8005030440D468DF87E
S1131D000140194652F8264010F8100C01F014FE58
S1131D102978276CAA78E8784B0127F0600703F04C
S1131D2060033B4323646B78676C002B27F0FF0749
S1131D3008BF01233B436364276C2B79920027F08F
S1131D400C0702F00C023A432264276C019A27F034
S1131D50030700F0030038432064D4F890703F4830
S1131D60CA409B0127F04007019203F0400304AAF4
S1131D703B4302EB86014FF440574FF0300CC4F85C
S1131D809030CDF808C00397826951F8087C6B79CC
S1131D9022EA0702002E4CD0012E3CD04FF480736F
S1131DA00127826102970393836951F8081CAA7979
S1131DB023EA0103002E45D0BE4235D02749EF79EE
S1131DC08B61D4F890202B7A687A002F0CBF0027FF
S1131DD0042722F004023A43C4F89020D4F8902057
S1131DE003F0030322F003021343C4F89030D4F841
S1131DF09430002823F008030CBF00220822134368
S1131E00C4F894302EB9AB7A03BB4B6823F4002397
S1131E104B6005B0F0BD1B0303F4405313438361CF
S1131E208369AA7923F48073120202F48072134343
S1131E30C4E71B0103F03003134383618369AA7968
S1131E4023F0010302F001021343B7E74B6843F4A4
S1131E5000234B6005B0F0BD7C9E00000080044070
S1131E60538830B4134D147855F82000A3F57062EC
S1131E7095B2052D11D903F01F0209B2002C50F8B8
S1131E80213023F05F0343EA02030CBF0022402207
S1131E90134340F8213030BC7047074B5D6825F48C
S1131EA0E0255D605D68120402F4E0222A435A6072
S1131EB01522E2E77C9E000000800440044B1231AE
S1131EC053F8203053F82130C3F30B0313807047C9
S1131ED07C9E0000F0B482B0002954D0304AD2F87D
S1131EE00033C3F34063002B42D1D2F800434FF0D8
S1131EF0806524F40004C2F80043C2F800530028AB
S1131F0032D04C7988784E78DFF89CC08F79254D93
S1131F10002C4FEA00200C7818BF654600F4E061FD
S1131F2006F007060CBF092001203143002F18BF1B
S1131F30284604F00304C2F80413C2F80843C2F8A4
S1131F400003D2F80013C90116D411461423D1F8A2
S1131F500023D20103F1FF3312D5D1F808231BB9B2
S1131F60032002B0F0BC7047002002B0F0BC704700
S1131F70022002B0F0BC7047D2F808231846F4E7F8
S1131F80002BE4D1ECE701238DF806108DF8001046
S1131F908DF805308DF801308DF8023069469DE7E3
S1131FA0004006400900800001008000F0B484B0C5
S1131FB0002965D0414BD3F80021C2F34062002AC6
S1131FC042D1D3F800413E4D24F400044FF0806622
S1131FD0C3F80041C3F800612A60002844D0CA79DC
S1131FE08F794C79487A0E7A1201FF0007F00807BE
S1131FF002F030023A43A4000F79000204F0040412
S113200000F4E06006F0070622433043012FC3F8D2
S11320100401C3F8082148D02AD3022F07D10C7B2E
S1132020284A2948002C18BF0246C3F800210B682F
S11320302B606BB9254B214AD2F80011013BFBD12F
S1132040032004B0F0BC7047022004B0F0BC704719
S11320501F4B1A4902E0002BF2D0013BD1F80021BA
S1132060D201F8D5002BEBD0002004B0F0BC7047AF
S1132070087B184A002808BF0122C3F80021D6E7CC
S11320808DF804108DF80C108DF8061004A9124B6D
S113209041F8103D022201238DF808308DF80930F3
S11320A08DF805308DF8072084E7087B0B4A00285B
S11320B008BF4FF00112C3F80021B8E70040064002
S11320C0D4210020010003000100830089E73000CF
S11320D088E730000100800000127A0001008100CE
S11320E00C4BD3F8000110F0807011D00A4A10682C
S11320F070B1D3F80826D3F80836C3F30443C2F307
S1132100022210330132B0FBF2F000FB03F040086E
S1132110704700BF00400640D4210020F0B482B0D4
S1132120002952D0304AD2F80032C3F34063002B66
S113213043D1D2F8004224F40004C2F80042C2F8A9
S1132140003200283DD00E7988794F798B780C784D
S11321504D78002E0BBF0521072101260326002FF1
S113216018BF0E461B0200280CBF00204FF40000CD
S113217005F0070103F4E0630B43304304F001046A
S11321801146C2F80432C2F80842C2F80002D1F87B
S11321900022D0014FF0640306D453B1D1F80022D9
S11321A0D00103F1FF33F8D5D1F80822D207F4D5D2
S11321B03BB9032002B0F0BC7047022002B0F0BC6F
S11321C07047002002B0F0BC70478DF804108DF801
S11321D0061002A9012301F8083D8DF805308DF899
S11321E001308DF802309DE70040064030B484B0E1
S11321F0002970D04B4BD3F8002695015BD4D3F85B
S113220000264FF0806422F40002C3F80026C3F8CD
S11322100046002853D04A790D79D3F800010C7890
S11322204878120202F4E06205F007052A43C3F875
S113223004268A780002120400F4E06002F4F81222
S11322400243012CC3F8082663D03CD3022C07D1E7
S1132250C879354A3549002818BF0A46C3F800260C
S1132260334B1C68002C48D02E49D1F80026D001ED
S11322704FF47A7306D4D3B1D1F80026D00103F118
S1132280FF33F8D5D1F80021D201F4D5D1F80826CE
S1132290D1F80806C0F30440C2F302221030013220
S11322A0B4FBF2F202FB00F25208E4D03BB9032083
S11322B004B030BC7047022004B030BC704700202A
S11322C004B030BC7047C9791A4A002908BF0122FA
S11322D0C3F80026C4E7012307228DF804108DF803
S11322E00B108DF805108DF807108DF808308DF857
S11322F009308DF8062001A97CE70A4940F2E93348
S1132300D1F80026D40148BFD1F80021013BF7D110
S1132310CDE7C979084A002908BF4FF00112C3F874
S113232000269DE7004006400100030001008300F1
S1132330D4210020010080000100810038B5624BE7
S113234033F810309B0003F1804303F5CA231C6863
S11323501D68C4F3C00405F00705A5420ED3186830
S1132360C0F3807058B11B68C3F30263013B052BB3
S113237055D8DFE803F0433420545405002038BD19
S1132380084600297ED0012949D1504BD3F80006D4
S113239010F0807040F08C804C4BD3F80436C3F3BB
S11323A00223002B3BD0013BD8400135B0FBF5F0B4
S11323B004FB000038BD002953D001292FD1434B21
S11323C0D3F8000310F0807018BFD3F808333F4BE4
S11323D018BF3F48D3F80433C3F30223E1E729B31A
S11323E001291CD1394BD3F8000210F0807062D15E
S11323F0364BD3F80432C3F30223D2E711B30129D5
S11324000DD1324BD3F8000110F080701CBF314B5A
S113241018682E4BD3F80431C3F30223C1E7013506
S11324200020B0FBF5F004FB000038BD274BD3F8C7
S11324300022D00131D40846244BD3F8043203F0EF
S11324400703AEE7214BD3F80031DB0144BF214B36
S113245018681E4BD3F8043158BF084603F007032D
S11324609FE71A4BD3F80023D20148BFD3F80833AF
S1132470164B48BF1648D3F8043358BF084603F038
S113248007038EE7114BD3F80036DB010DD40F4B55
S1132490D3F8043603F0070383E7D3F808320E4871
S11324A013F0010F08BF0020C6E7FFF719FEEEE79F
S11324B0FFF716FE70E7D3F80832074813F0010F50
S11324C008BF002094E700BF8C9E00000040064037
S11324D0006CDC02D421002000127A00364B1B6908
S11324E0C3F30363013B052B4BD8DFE803F0232C34
S11324F0194A4A03304AD2F8003613F0807342D1A5
S11325002D490A690128C2F3034202F10102B3FB17
S1132510F2F326D002D302282BD0002318467047AA
S1132520254AD2F8003313F08073E9D0D2F8083387
S1132530224BE5E7204BD3F8003113F08073DFD052
S11325401F4B1B68DCE71C4AD2F8003213F080737F
S1132550D6D0D2F808221B4B12F0010F08BF00237B
S1132560CEE70A69C2F303120132B3FBF2F3184651
S113257070470A6902F00F020132B3FBF2F3184606
S113258070470023BCE7D2F8003113F08073B7D052
S11325900B4B1B68002BB3D0D2F80816D2F80826D0
S11325A0C2F30442C1F3022110320131B3FBF1F34F
S11325B003FB02F35B08A3E700400640006CDC0267
S11325C0D421002000127A002DE9F043CA788C78D7
S11325D04D780E78631C511E05FB033C06FB033744
S11325E005294BD8DFE801F0353E154A4A038249F4
S11325F0D1F800E61EF0807F54D1022800F08780D5
S1132600032800F09680012800F0E3800020BDE854
S1132610F0837949D1F800E31EF0807FEDD0D1F842
S113262008137649022800F0A480032800F0AF8044
S11326300128EBD1DFF8D08102EB420E58F82EE0EE
S11326404FEA1E1E03FB0EF3994240F2AF80BDE831
S1132650F0836949D1F80011C901CED568490968E8
S11326600909DFE76449D1F800E21EF0807FC4D095
S1132670D1F80812C907C0D56249D3E702282FD080
S11326800328C0D1DFF884E10021500083180EEB49
S113269083035B681B090CFB03FC8C454DD20120B2
S11326A0BDE8F083D1F800E11EF0807FA5D0DFF80B
S11326B050E1DEF800E0BEF1000F9ED0D1F808969C
S11326C0D1F80816C1F3044101F11008C9F3022935
S11326D009F10101BEFBF1F101FB08F14909A1E790
S11326E0DFF82C8100215000104408EB800043687F
S11326F01B090CFB03FC8C45D1D30C2303FB028880
S1132700D8F808301B0907FB03F78F42C7D323040B
S11327102D01EDB203F470232B4306F00F061206CD
S1132720334302F07062344913438B610020BDE8E7
S1132730F083DFF8D8E00021500010440EEB800E47
S1132740DEF808301B0907FB03F78F42A7D31306F3
S1132750240404F4702403F07063234306F00F068A
S11327602D013343EDB2244A2B43D3610020BDE84D
S1132770F083500000EB020EDFF8948058F82EE04E
S11327804FEA1E1E03FB0EF3994288D8ACE75000B3
S113279000EB0208DFF874E05EF828804FEA1818AE
S11327A003FB08F399423FF67AAF6FE70C2303FB70
S11327B00288D8F804301B090CFB03FC61453FF682
S11327C046AFD8F808301B0907FB03F7B9423FF6B8
S11327D03EAF23042D01EDB203F470232B4306F026
S11327E00F061206334302F07062034913434B6130
S11327F00020BDE8F08300BF00400640C0C62D00A5
S1132800D421002020A10700809F00002C9F0000FD
S1132810D49F0000BC4B5B69DBB2042B2DE9F0476D
S113282000F0C480802B00F0BF80012B0CBF01227C
S113283004228478C17845780678631C481E05FB19
S1132840033E06FB0338052800F28C80DFE800F025
S11328508062148A8A03AD48D0F80076FF0100F143
S1132860CC80022A00F04D81032A00F0A180012AC5
S113287000F04181062012E0A448D0F80073FF0163
S11328804ED5D0F80803DFF88CC2022A00F0EA80A3
S1132890032A00F00381012A00F0CB8008469B4BF9
S11328A01A69C2F30362824200F0F3801A69C2F328
S11328B00362824200F0ED801A69C2F3036290421F
S11328C000F0E7801A69C2F30362904200F0E180ED
S11328D01A69C2F30362904200F0DB801A69C2F302
S11328E00362904200F0D5801A69C2F303629042F9
S11328F000F0CF801A69C2F30362904200F0C980ED
S11329001A69C2F30362904200F0C3801B6903207A
S1132910BDE8F0877D48D0F80072FF0100F198808F
S1132920022A00F0C880032A42D0012AB6D1084600
S113293023042A01D2B203F47023134306F00F06D2
S11329400206334302F07062704913434B61A6E7F9
S11329506E48D0F80001C001E2D56D4800684FEA26
S1132960101C92E7022A7BD0032A00F09580012AEA
S113297094D1DFF8A49108464FF0000C4F007B1867
S113298009EB83035B681B090EFB03FEE6455CD37E
S113299000EB400309EB8309D9F808301B0908FB55
S11329A003F8E04551D3C3E7032242E7022240E79C
S11329B0DFF8689108464FF0000C4F000F4409EB14
S11329C087077B681B090EFB03FEE6453DD3BB6806
S11329D01B0908FB03F8E04537D30B06220402F475
S11329E0702203F07063134306F00F062A01334389
S11329F0D2B246491343CB6151E7D0F80071FF01CD
S1132A007FF52FAF424F3F68002F3FF42AAFD0F835
S1132A1008C6D0F80806C0F30440CCF3022C1030EA
S1132A200CF1010CB7FBFCFC0CFB00FC4FEA5C1C3A
S1132A302BE74F007818DFF8E09059F820000009E0
S1132A4003FB00F36345084699D20120BDE8F087F3
S1132A50D0F80802C0077FF563AFDFF8C4C014E7FD
S1132A604FF0000C4F0078188000DFF8B8A05AF837
S1132A700020120903FB02F363450AEB0009084630
S1132A80E3D3D9F804301B090EFB03FEE645DCD37F
S1132A9017E00020BDE8F0874FF0000C4F007A18D3
S1132AA0DFF8789059F82220120903FB02F39C45C1
S1132AB00846CAD882E7DFF86CA008464FF0000C3D
S1132AC04F0039440AEB810ADAF808301B0908FB85
S1132AD003F8E045B9D323042A01D2B203F47023E6
S1132AE0134306F00F060206334302F070620749EF
S1132AF013438B61D3E6DFF820904FF0000C0620DF
S1132B0046E70620E7E700BF00E007400040064034
S1132B10D4210020C0C62D00809F00002C9F0000FF
S1132B2020A10700D49F0000554B1B6AC3F3036325
S1132B30062B39D8DFE803F00B2F172538380400AB
S1132B404F4BD3F8000610F080702FD170474C4BD8
S1132B501B69C3F30363013B052B75D8DFE803F05E
S1132B606B5D5374743F464BD3F8000210F08070D1
S1132B70ECD0D3F80832434813F0010F08BF00200B
S1132B8070473F4BD3F8000310F08070DED0D3F8C9
S1132B9008333D4870473A4BD3F8000110F0807079
S1132BA0D4D03A4B186870470020CFE7D3F800011F
S1132BB010F08070CAD0354A10680028C6D0D3F807
S1132BC00826D3F80836C3F304431033C2F30222B1
S1132BD00132B0FBF2F000FB03F040087047284BD1
S1132BE0D3F8000610F0807030D1254B1A691B69A8
S1132BF0C2F3034203F00F0301320133B0FBF2F0DE
S1132C00B0FBF3F070471E4BD3F8000310F0807054
S1132C10EBD0D3F808331C48E7E7194BD3F800028C
S1132C2010F08070E1D0D3F80832164813F0010F89
S1132C3008BF0020D9E7124BD3F8000110F08070D0
S1132C40D3D0124B1868D0E70020CEE7D3F80001A8
S1132C5010F08070C9D00D4A10680028C5D0D3F890
S1132C600826D3F80816C1F30441C2F3022301F184
S1132C7010020133B0FBF3F000FB02F04008B4E7AC
S1132C800040064000127A00006CDC02D4210020CF
S1132C9008B55B4B5B68C3F303130E2B17D8DFE84F
S1132CA003F08616761608164C6064721F162216F8
S1132CB03000544BD3F8000210F0807040F0918043
S1132CC0504BD3F80432C3F30223002B46D1002027
S1132CD04B4B5B68C3F302230133B0FBF3F008BD35
S1132CE04FF4FA30F4E7464A1369C3F38103022B25
S1132CF060D0032B5ED0002B0CBF4FF4FA300020C1
S1132D00E6E73F4A1369C3F30113022B74D0032B84
S1132D1056D0012B4ED03B4B3A4AD3F80031D2F86F
S1132D20042113F080731CBF374B1B6812F0070299
S1132D30CDD0013A23FA02F0CAE7324BD3F80003AC
S1132D4010F0807018BFD3F808332E4B18BF2F48EB
S1132D50D3F80433C3F30223002BB8D0013BD8408B
S1132D60B6E70020FFF7BAFBB2E7264BD3F800061C
S1132D7010F080703DD1234BD3F80436C3F3022303
S1132D80002BEBD1A3E70120FFF7A8FBA0E71D4B25
S1132D90D3F8000110F080701CBF1B4B1868194B4E
S1132DA0D3F80431C3F30223002BD7D18FE7FFF705
S1132DB0BBFE8DE713699B0789D54FF4FA4087E77B
S1132DC0104AD2F8003313F0807318BFD2F80833D6
S1132DD00C4A18BF0D4BD2F8042312F00702A8D1F5
S1132DE075E7D3F808320A4813F0010F08BF002032
S1132DF066E7FFF775F9BEE7064B186868E700BF9A
S1132E000080044000400640D4210020006CDC0215
S1132E1000127A00D8210020F0B50446A1B00028A1
S1132E2000F0D481534A1369C3F30363032B58D0CE
S1132E30D2F8001311F080714AD0D2F808334E4A08
S1132E404E4B01925B69DBB2042B00F08D80802B2A
S1132E5000F03982012B0CBF0120042001A9FFF7E7
S1132E60B3FB0546002839D1424A9DF80730116961
S1132E70C1F303618B4234D01169C1F303618B4206
S1132E802FD01169C1F303618B422AD01169C1F3B8
S1132E900361994225D01169C1F30361994220D09D
S1132EA01169C1F3036199421BD01169C1F3036134
S1132EB0994216D01169C1F303618B4211D0126992
S1132EC0C2F303629A420CD02A4B03251B6905E026
S1132ED00120FEF7FFFF05460028B0D0284621B0A8
S1132EE0F0BD2146E078FFF719F9054608B3234BF6
S1132EF05B69DBB2042B39D0802B00F0FD81012B00
S1132F00ECD104F13606002DE8D1F378032B37D148
S1132F1094F82830002B40F0F281637F01AF002B3E
S1132F2040F02682E37801AF002B40F02C8201258B
S1132F30D4E704F11001607FFFF738F80546064630
S1132F400028D4D104F1200194F82800FFF74EF9A9
S1132F500A4B5B69DBB2042B054607D0802B00F0DB
S1132F60CB81012BCFD1CCE7022077E704F13A06DD
S1132F70C9E700BF004006400301000300E007402A
S1132F8020A8327800F87C2DB17872788DF807305B
S1132F908DF806108DF80520FFF73CFC0546002847
S1132FA09CD1E11DA07BFEF795FF0546002D95D130
S1132FB094F8303013B1C54BE26A1A6094F8353096
S1132FC053B1C34994F834300A6A1B0622F0706284
S1132FD003F0706313430B6294F84330002B40F00A
S1132FE0AC81216F91B3E66E86B306EB8606B94FCA
S1132FF00E440B7891F801C037F813300A79C87879
S11330009B0003F1804303F5CA23BCF1000FD3F8FE
S113301000C02CF0804CC3F800C091F802C014BF6B
S11330204FF0804E4FF0000E4FEA0C6C02F0070296
S11330300CF0E06C42EA0E02C00042EA0C0200F01E
S11330400800053102438E421A60D2D194F844300C
S1133050C3B194F8463094F847209F4994F84560EA
S113306048681B01120202F4E062DBB21343002E33
S113307020F47F6243EA02030CBF00224FF4006293
S113308013434B6094F84830E3B1934894F84A30C2
S1133090016994F84C7094F8492094F84B6021F03D
S11330A03F019B00394303F00C03120102F030028C
S11330B0002E43EA010343EA02030CBF002202226A
S11330C01343036194F86030002B33D0824B94F89F
S11330D06120196C94F8627094F8636094F8640049
S11330E021F001010A431A641A6C94F86510002F48
S11330F00CBF0027022722F002023A431A641A6C1A
S1133100002E0CBF0026042622F0040232431A6467
S11331101A6C00280CBF0020082022F00802024389
S11331201A641A6C002922F010020CBF002110212D
S11331300A431A6494F850302BB104F1540007C8C0
S1133140664B83E8070094F86630E3B1624A94F86A
S11331506830916E94F867600020906651681B0394
S113316021F4805103F480530B435360906656B1AD
S113317094F8693094F86A105B0003F00E0341F090
S113318080510B43936694F87430002B3FF4A6AE41
S1133190534994F875208B7882F0010203F07F0381
S11331A043EAC213DBB28B7094F976304C49002B9E
S11331B0B8BF20330A79B8BF5BB202F0E00203F073
S11331C01F03134328460B7121B0F0BD4FF00112C9
S11331D04449CDF80B20022206918DF81F200C21C2
S11331E0032201238DF82A108DF83C203E4F3F4ED8
S11331F03F4D40488DF815404FF0013220218DF8A5
S11332000F400D948DF81C408DF824408DF81E401D
S11332108DF828408DF82F408DF829408DF82B40EB
S11332208DF808308DF809308DF80A308DF8163095
S11332308DF814308DF810308DF811308DF8383049
S11332408DF825308DF81D308DF820308DF8213023
S11332508DF830308DF82C308DF82D308DF83D30D0
S11332608DF84B30CDF83E708DF84D408DF84E40C2
S11332708DF84F408DF852408DF8514017941894B2
S113328019948DF870408DF871408DF872408DF866
S11332907E408DF84C308DF850308DF854308DF8D8
S11332A053308DF873308DF858308DF87C308DF8AC
S11332B07D30CDF84260CDF846501E901D911A9293
S11332C01B9202ACAEE50320C8E500BFD821002064
S11332D0004006408C9E000000800440DC21002059
S11332E000D0074000127A0001010003030001022C
S11332F0030100068888FF1F04F13E0603E620AFA1
S1133300244B47F87C3D3846FFF784FA637F054633
S1133310A3B301282CD0002D7FF4E0ADE11DA07BE8
S1133320FEF7D8FD054600287FF4D8AD3368019335
S11333303846FFF76FFA054638E604F136010120F6
S1133340FFF742F918B10546284621B0F0BD04F153
S11333503A010220FFF738F90028F4D104F13E01C4
S11333600320FFF731F900283FF43BAE0546EBE7B5
S1133370094B01933846FFF74DFA0546E378002BD5
S1133380C9D0012DC7D1054B01933846FFF742FA46
S11333900546C0E701010206010100010100000227
S11333A0BE4BF0B55B69DBB2042B83B06DD0802BD0
S11333B066D0012B0CBF01260426002863D00368C5
S11333C0013B032B33D90422002934D00B78CD8858
S11333D08F88043BDBB2032B9CBFB148C45CB14B68
S11333E04888D95D185C5B5D8DF8060088BFFF24B2
S11333F08DF807408DF805108DF80430B24200F0C6
S1133400FC809DF806009DF807309DF805409DF866
S11334100450411C5E1E04FB011705FB011C052E14
S113342000F2C180DFE806F0734921BFBFB89E4AAD
S1133430D25C0029CAD19D4BD3F8000310F08070F0
S11334404ED003250124B242D3F808338DF8061078
S11334508DF807508DF804508DF8054000F0CD80AC
S113346008464FF0040C21460227904BD3F8006322
S1133470F60140F13A81D3F808338D4E032350E02E
S1133480032600289BD132469EE7022695E7D3F80F
S11334900031864BD3F80012CC01AFD5D3F80832F3
S11334A0D907ABD5834B0193B24200F0A680012526
S11334B02F46294600244FF0020C7C4BD3F80062BF
S11334C0F60100F114810223022A00F08580032A08
S11334D000F09880012A00F02581002003B0F0BD9F
S11334E0D3F80016C90133D4704BD3F80031DD0191
S11334F0CFD5714B1B68002BCBD0704B0193B242DC
S11335007BD001254FF0020C67462C462946674BB9
S1133510D3F80031DB0140F19880674B1E6801232A
S11335203609022A00F0D480032A00F0AA80012A76
S1133530D3D103EB4302DFF890E15EF822201209B5
S113354001FB02F1B14280F0DA80012003B0F0BD4A
S1133550D3F80011CF01C7D557490968002996D07F
S1133560D3F80856D3F80846C4F30444C5F3022537
S113357010340135B1FBF5F101FB04F1490800F009
S1133580E2804F4B0193B24237D04FF0060C012535
S113359067462C4603210220444BD3F80066F6010B
S11335A055D4062390E7022A91D1DFF820E10026C2
S11335B003EB43020EEB82025268120907FB02F787
S11335C0B742C2D30C2202FB03EEDEF80820120934
S11335D00CFB02FCB445B8D31B06000400F47020B5
S11335E003F0706324010343E4B2234305F00F05A1
S11335F02E4A1D439561002070E701A8FFF70AF9E0
S113360003B0F0BD2F4A002603EB430102EB810116
S11336104A68120907FB02F7B74296D38A6812096F
S11336200CFB02FCB44590D30204240102F4702282
S1133630E4B2224305F00F051B06154303F0706343
S11336401A4A2B43D361002048E701233CE7D3F80F
S11336500061F601A5D5184E3668002EA1D0D3F826
S113366008E6D3F80836C3F304431033CEF3022E2E
S11336700EF1010EB6FBFEF606FB03F676090623F1
S11336804FE703EB430E0F4A52F82EE04FEA1E1E9B
S113369001FB0EF1B142FFF458AFB5E700E007407B
S11336A0889E000078A00000849E00000040064030
S11336B0C0C62D0001000002D42100200101000138
S11336C0010102062C9F0000809F0000D49F00008F
S11336D003EB4302DFF884E05EF82220120901FBC9
S11336E002F1B142FFF431AF62E70323ECE6D3F811
S11336F00832DB077FF5E7AE164E022311E70C22F2
S113370002FB03EEDEF80420120907FB02F7B742BE
S1133710FFF41BAFDEF8082012090CFB02FCB445D1
S1133720FFF413AF1B06000400F4702003F0706371
S113373024010343E4B2234305F00F05064A1D4365
S113374055610020CAE6D3F80031DB013FF5D5AE60
S11337509FE600BF20A1070000400640D49F000060
S1133760134B1B69C3F30363013B052B04D8DFE848
S113377003F01C0316030319042303700C4B19698B
S11337801A691B69C1F30341C2F3031203F00F0367
S113379001310132013341808280C38070470523A7
S11337A00370EBE707230370E8E706230370E5E7FC
S11337B00040064010B4054C20602171A2602373C0
S11337C0637300205DF8044B704700BFF4200020B1
S11337D02DE9F043574D83B0074688468DF8040021
S11337E08DF8051002F0B4F92E7B6E7301238DF869
S11337F00630002E59D0B8F1000F78D00024AB6801
S113380053F8243001A843B11A79022A05D01A6862
S1133810996890472E7B00B16C730134E4B2B442D2
S1133820EDD32B6853F82700FFF7F6FA6F710746BC
S113383000287BD102238DF80630AEB10446B8F1DE
S1133840000F20D0AB6853F8243001A843B11A7993
S1133850012A05D01A68996890472E7B00B16C73D1
S11338600134E4B2B442EDD302F066F9384603B051
S1133870BDE8F0831A689968904790B92E7B0134AB
S1133880E4B2B442F0D2AB6853F8243001A8002B60
S1133890F5D01A79012AEDD10134E4B2B442F2D35D
S11338A0E2E76C734FF48277DEE72B6853F8270066
S11338B0FFF7B2FA6F710746002833D0B1460023F0
S11338C04FEA89098DF80630AB6853F8093001A82E
S11338D0A9F1040913B11A689968904719F1040F02
S11338E0F2D102F029F9384603B0BDE8F08344462A
S11338F004E02E7B0134E4B2B44292D20FFA84F98C
S1133900AB6853F8293001A8002BF3D01A79022AA6
S1133910F0D01A68996890470028EAD06C7340F296
S11339200317CCE702238DF806309DE70FFA84F9DC
S1133930C5E700BFF4200020112870B504460D46E9
S113394005D9232819D94D282DD9042070BD441E2A
S1133950102C48D8DFE814F04E00520056005D00E9
S1133960680071007900960099009C00AC00BB00CF
S1133970FD00CF00DE00EF00F501A0F115040E2CD0
S113398000F22D82DFE814F00C012E012701210141
S11339901701920182015E0151014A0143013C0178
S11339A035010301F7002438C3B21C2B10D94D2C68
S11339B017D0AB4AAB4B32F8142053F822305A00DC
S11339C000F1938100234FF480704DB12B6070BDE2
S11339D0A548D840C04310F00103EAD10420F4E71D
S11339E070BD0023FAE70020FEF778FD05B12860DA
S11339F0002070BD0120FEF771FDF7E70220FEF7FD
S1133A006DFDF3E7994B5B68190500F1C781002050
S1133A10ECE7974BD3F80022D201F8D5D3F808325B
S1133A20DB07F4D59348E1E7914BD3F80023D601A3
S1133A30EDD5D3F808339048D8E78D4BD3F800314F
S1133A40DC01E4D58D4B1868D0E7894AD2F80036FA
S1133A50D801DCD5D2F80031D901D8D5874B1B6801
S1133A60002BD4D0D2F80806D2F80826C2F30442B8
S1133A70C0F3022010320130B3FBF0F000FB02F07F
S1133A804008B3E77E4B1868B0E7FFF74DF8ADE7A1
S1133A90774AD2F8000210F0807040F06981744BCC
S1133AA0D3F8043213F00703B1D0013BD8409DE7AB
S1133AB06F4AD2F8000210F0807040F064816C4BC1
S1133AC0D3F80432C3F30223002BEED19FE7684AF4
S1133AD0D2F8003313F0807318BFD2F80833644A65
S1133AE018BF654BD2F8042312F007028FD0013AB5
S1133AF023FA02F07AE75E4B5D4AD3F80031D2F83C
S1133B00042113F080731CBF5C4B1B6812F0070286
S1133B10EDD17CE7564B564AD3F80031D2F8042154
S1133B2013F0807318BF554BC2F3022218BF1B68F1
S1133B30002ADCD16BE74E4BD3F8000610F08070FE
S1133B4040F029814A4BD3F8043613F00703ACD173
S1133B505DE7474AD2F8003313F0807318BFD2F8F8
S1133B600833434A18BF444BD2F80423C2F3022259
S1133B70002ABCD14BE73D4B1A6C12F001020CD168
S1133B804FF48070002D3FF42BAF2A6070BD374B8B
S1133B901A6CC2F34002002AF2D000221046F1E768
S1133BA0324BDB68C3F30163032BF6D0354A0020A4
S1133BB052F82320E6E72D4B5A6812F40062EDD048
S1133BC0FFF766F802460020DCE7284BDB689B0F12
S1133BD0032BE2D0EAE7254BDB68C3F30173032B25
S1133BE0DBD0E3E7214BDB68C3F38163032BD4D041
S1133BF0DCE71E4B1A6CC2F38002002AC0D0CCE76B
S1133C001A4B1A6CC2F3C002002AB9D0C5E7174B8D
S1133C101A6CC2F30012002AB2D0BEE71A4B9B788A
S1133C20D809BAD14FF4FA32ACE7174B9B78DB09C9
S1133C30B3D10E4A126912F00202AFD018464FF403
S1133C40FA429FE7104B9B78DB09A6D1074A126919
S1133C5012F00102A2D018464FF47A7292E700BF24
S1133C608C9E0000005006400180A010008004409B
S1133C700040064000127A00006CDC02D4210020CF
S1133C80D8210020DC21002000D00740554B9B7830
S1133C90DB0982D1544A1069C0F381000228C9D0DB
S1133CA00328C7D000287FF478AFBBE74E4A1369D6
S1133CB0C3F30113022B00F08E80032B7AD0012B67
S1133CC06FD04A4BD3F8003113F0807316BF484BC2
S1133CD01A461A68454BD3F8043113F007033FF42E
S1133CE05CAF013BDA4000204CE7424B1E5D16F00E
S1133CF0200018D173061ED430061BD416F0180306
S1133D000FD031072CD4F3067FF55CAE2046012199
S1133D10FEF714FB0346002B0CBF4FF48070002009
S1133D2053E6184651E60120FEF7D8FB00283FF47D
S1133D3049AEE3E70220FEF7D1FB00283FF442AE90
S1133D40DCE72A4BD3F8000610F0807018D1274B1B
S1133D50D3F80436C3F30223002B7FF4A6AE56E651
S1133D6000212046FEF7EAFAF2060346D3D5CDE752
S1133D70D2F80832204813F0010F08BF00208EE665
S1133D80FEF7AEF9E3E7D2F808321B4813F0010F4F
S1133D9008BF002093E6FEF7A3F9D3E6FEF778FF09
S1133DA024E6126912F002023FF4F8AE4FF4FA422C
S1133DB00020E7E60D49D1F8002312F0807218BF05
S1133DC0D1F80833094B18BF0C4AD3F8043313F065
S1133DD0070386D1E1E60A4B00201A68D2E60022E6
S1133DE00420CFE600D00740008004400040064095
S1133DF0D421002028A0000000127A00006CDC020C
S1133E00D8210020064B1B6810B453F8204053F807
S1133E102030616000209A605DF8044B704700BF59
S1133E2004210020074B084A1B6853F8203000F097
S1133E300F011177D17723B15A6812B1197B9868B1
S1133E4010477047042100200080004070B50D4CDD
S1133E5000F00F05064629462046002200F0ECF843
S1133E60094B1B6853F826305BB12577E577A577B6
S1133E705A680121197322B1197B9868BDE8704012
S1133E80104770BD00800040042100202DE9F04F50
S1133E9087B001259DF84090119F9DF84CB005FA1C
S1133EA009F85FFA88F4B7FBF4F604FB16741CB146
S1133EB0284607B0BDE8F08F04934F4B029100F001
S1133EC00F052946824618460392059300F0BAF876
S1133ED0059B4FEA451C1A680CF1804C0CF5104008
S1133EE022F080021A606E01039A0260991941F26D
S1133EF010021846049B8B50234622462946CDF8CF
S1133F000490CDF800900CF5004400F0C5F8029B35
S1133F10032B0ED8DFE803F03D4E5F0206F1804329
S1133F2003F5004341F2040041F21401002222523D
S1133F305A52DFF8C4803A46464441F21C074046D0
S1133F40294600F0C1F840462946012200F0E4F871
S1133F50F35B2A4A1BB243F002039BB2F353136888
S1133F60129A53F82A30002440461C73294600F064
S1133F70D3F8F35B23F00803A3454FEA034314BFCC
S1133F80082222461B0C13432046F35307B0BDE816
S1133F90F08F06F180434FFA88F803F5004341F2AD
S1133FA0040141F214021FFA88F80020605223F839
S1133FB00280BEE741F204024FFA88F806F180431A
S1133FC01FFA88F824F8028003F5004341F2140232
S1133FD000219952ADE741F204024FFA88F81FFA22
S1133FE088F806F1804324F8028003F5004341F287
S1133FF0140223F802809CE7008000400421002082
S113400008B500F00F010122024800F015F8002065
S113401008BD00BF0080004008B500F00F01002279
S1134020024800F009F8002008BD00BF00800040ED
S113403000487047008000400AB981767047C17615
S1134040704700BF00EB4112F0B441F2060002F5E4
S1134050805541F2080641F2040441F20C0C00239D
S1134060935111462B6041F21007135341F2140689
S1134070135241F2160542F80C3041F2180441F291
S11340801C0041F21E02CB518B534B530B510B526C
S11340908B52F0BC704700BF30B49DF80C409DF8C3
S11340A00850DB00DBB204F007041C432D0205F4C6
S11340B0E065803144EAC2242C4300EB4111A4B2F0
S11340C0CC8030BC704700BF03681B0618D530B4E1
S11340D04901441841F20803E558002D02DBE55874
S11340E06D0013D5084441F20801C2F30902435894
S11340F023F47F7323F003031A43425030BC704708
S113410000EB411041F20803C250704722F04042D4
S1134110E25030BC704700BF00EB411141F21E0079
S11341200B5A13F4004F0B5A0DD1C2F30E0203F4D1
S1134130004313430B5241F216000B5A03F400439D
S11341401A430A527047C2F3080203F47E4313432E
S11341500B5241F216000B5A03F47E431A430A52DF
S1134160704700BF0020FFF75DBE00BF0120FFF7CE
S113417059BE00BF0220FFF755BE00BF0320FFF762
S113418051BE00BF0420FFF74DBE00BF0520FFF75E
S113419049BE00BF0620FFF745BE00BF0720FFF75A
S11341A041BE00BF0820FFF73DBE00BF0920FFF756
S11341B039BE00BF0A20FFF735BE00BF0B20FFF752
S11341C031BE00BF0C20FFF72DBE00BF0D20FFF74E
S11341D029BE00BF0E20FFF725BE00BF0F20FFF74A
S11341E021BE00BF10B50020FFF722FFC46AE0071C
S11341F01ED4A10721D4620724D4230727D4E006C0
S11342002AD4A1062DD4620630D4230633D4E00583
S113421036D4A10539D462053CD423053FD4E00447
S113422042D4A10445D4620448D423044BD410BD21
S11342300020FFF70BFEA107DDD50120FFF706FEE6
S11342406207DAD50220FFF701FE2307D7D5032042
S1134250FFF7FCFDE006D4D50420FFF7F7FDA10627
S1134260D1D50520FFF7F2FD6206CED50620FFF773
S1134270EDFD2306CBD50720FFF7E8FDE005C8D503
S11342800820FFF7E3FDA105C5D50920FFF7DEFDF2
S11342906205C2D50A20FFF7D9FD2305BFD50B203F
S11342A0FFF7D4FDE004BCD50C20FFF7CFFDA1043B
S11342B0B9D50D20FFF7CAFD6204B6D50E20FFF76D
S11342C0C5FD2304B3D50F20BDE81040FFF7BEBDE4
S11342D0054B53F820000166836D23F0800343EA05
S11342E0C2128265002070478CA00000F0B46D4BB0
S11342F04C7853F820301CB98A78002A00F08D805D
S11343000A7812B10120F0BC7047D3F88C20C87A27
S11343108D78CE7842F48022C3F88C20D3F88C2098
S113432042F40022C3F88C20D3F88C2042F480128B
S1134330C3F88C20D3F88C2042F40032C3F88C20CC
S1134340D3F88C20003018BF012022F4803242EAD6
S11343500042C3F88C20D3F88C2042F08002C3F8CA
S11343608C20002C00F08B809A6D42F010029A652C
S11343709A6D002D00F08B8042F020029A659A6DB0
S1134380002E00F08B8042F040029A650A799D6D00
S11343908C79C87991F805C00F7A520025F002058E
S11343A002F002022A439A659E6D8D7A4A7A26F0BB
S11343B0010646EA0C069E65996D003718BF012771
S11343C021F0080141EAC7019965D3F88C60210105
S11343D001F0100126F010042143C3F88C10D3F827
S11343E08C40410101F0200124F020000143C3F876
S11343F08C10D3F88C10920021F0040102F0040216
S11344000A43C3F88C20D3F88C2022F001022A43FB
S11344100020C3F88C20F0BC7047CD78002D7FF4C9
S11344206FAF0A78002A3FF46DAFD3F88C00CA7AD4
S113443040F48060C3F88C00D3F88C0040F4006032
S1134440C3F88C00D3F88C0040F48050C3F88C007F
S1134450D3F88C0040F40070C3F88C00D3F88C00BF
S1134460120220F4807002F480720243C3F88C209C
S1134470D3F88C2042F08002C3F88C202E469A6D2B
S113448022F010029A659A6D002D7FF475AF22F028
S113449020029A659A6D002E7FF475AF22F04002D7
S11344A09A6573E78CA000002DE9F047DFF8489186
S11344B059F8204082B024B10124204602B0BDE85E
S11344C0F08790464A4A8B7B88F8003052F8205097
S11344D088F801400F460646A8F80240202249F811
S11344E020802146C8F80840C8F80C40C8F810409D
S11344F0C8F8144008F1180005F069FC2022214690
S113450008F1380005F063FC2846C8F85840C8F89C
S11345105C4000F08BF82846797B00F07BF859F872
S113452026202B681278019403F007034FF0010949
S1134530022A09FA03F955D0032A40D0012A04D1EA
S1134540204601A9FFF7F8F9019C3B7BB4FBF9F481
S1134550023B022BC8F804402BD900247A7CE86E75
S1134560FB7B397C920102F0400220F040000243C0
S1134570EA66D5F884209B0122F0C002DBB2134323
S1134580C5F884302B681B4A49B923F480739057CB
S11345902B6001F0C3FA204602B0BDE8F08743F473
S11345A0807390572B6001F0ADFA204602B0BDE84D
S11345B0F08739463046FFF799FE0446CEE7DFF828
S11345C03CA00AEB460301A95C782046FFF7B4F946
S11345D0019B0BB91AF81640204601A9FFF7ACF964
S11345E0019CB2E701A91A20FFF7A6F9019CACE7E8
S11345F08CA00000C4A00000082100209CA00000A2
S1134600034B53F820305868B0FBF1F080B2704788
S113461008210020436D43F00103436501F00702C4
S1134620016821F00701114301607047002304224F
S1134630416F436742650268036043608360C364FB
S1134640026D03658365C365036643668366C26E54
S1134650C36603678367C367C0F88030C0F88430DB
S1134660C0F88830C0F88C30C0F89030C0F894306E
S1134670C0F89830C0F89C30C268C36003614269D6
S113468043618361C269C3610362426A43628362B4
S1134690C26AC3620363426B43638363C26BC363D3
S11346A00364426C43648364704700BF012911D9D9
S11346B0052999BF0239012306394FF4807303FA9F
S11346C001F1C36E1AB923EA0101C16670471943A7
S11346D0C1667047102303FA01F1F2E703290AD8EF
S11346E0DFE801F01B130A02836F120392B223F472
S11346F070431A4382677047836F120202F4706238
S113470023F470631A4382677047836F1201D2B235
S113471023F0F0031A4382677047836F02F00F029D
S113472023F00F031A438267704700BF2DE9F04F4F
S1134730A24B53F820B083B0BBF1000F00F0E0802F
S11347409BF80140002C40F0DB809D4B4F8853F8D0
S113475020A09C4EDAF8005025F01805CAF8005045
S1134760DAF84C503540CAF84C50DAF80820324098
S11347703A43CAF80820DAF8002022F02002CAF8E6
S11347800020DAF8642022F08002CAF86420DAF803
S1134790642022F00102CAF864200A78002A66D054
S11347A0894A019002EBC0038946009307E0012A7D
S11347B070D0013499F80020E4B2A24257D9D9F854
S11347C004102701CE5D394435B20BEB85028868AD
S11347D090610BEB060CC8689063032E4FF0010246
S11347E08CF8582026FA02F809D88A7902B10A7995
S11347F031465046FFF772FFD9F8041039444A781D
S1134800002AD4D1DAF864708A78009B4FF0040C43
S11348104FEAC8080CFA08F10AEBC50527EA0101BA
S1134820CAF86410E968985721F01001E960E96852
S113483021F02001E960EE68910001EA0C0126F004
S113484004063143E960E968920021F0080102F0AE
S113485008020A43EA60EA6842F04002EA6001F0B2
S113486051F9013499F80020E4B2A242A7D89BF888
S11348700020DAF80010D20021F0180102F018022A
S11348800A43002001218BF80110CAF8002003B06C
S1134890BDE8F08F4A4B019AC87853F82220CF79AB
S11348A0536E4FEAC808042101FA08F1194351660E
S11348B0536E082101FA08F11943516602EBC50150
S11348C017BBCF6827F01007CF60CF68032847F0E5
S11348D02007CF6022D001282CD0042862D00228DF
S11348E049D0731CDBB202EBC30237480199D36889
S11348F000EBC10043F04003D360805701F002F99C
S1134900012003B0BDE8F08FCF6847F01007CF60F7
S1134910CF68032847F02007CF60DCD102EBC50540
S1134920711CE86840F00400E860EF68C9B227F041
S113493008072BE002EBC505711CE86840F0040091
S1134940E860EF68C9B227F0080702EBC100EF6026
S1134950C56845F00405C560C56825F00805C5604F
S113496002EBC102009BD168985741F04001D1602D
S113497001F0C8F81DE702EBC505711CE86820F0DA
S11349800400E860EF68C9B247F0080702EBC10011
S1134990EF60C56825F00405C560C56845F00805E5
S11349A0C560DDE702EBC505711CE86820F0040072
S11349B0E860EF68C9B247F00807C6E7082100209D
S11349C08CA000000000FFFFA4A00000034B53F8DC
S11349D0200010B1043130F8110070470821002084
S11349E0214B1B685A78012A00D070471F4A12686D
S11349F0516E490730B41AD4D16881F08001C1F3F3
S1134A00C01102EBC1020C1D1569D06823F81450C3
S1134A1020F08000D060D2680A4603EB82018C6BE0
S1134A201CB1134493F85830C3B930BC70471069B3
S1134A30916980B289B2884284BF94680919091ABD
S1134A40D06889B220F080001981D060D1685169A2
S1134A5021F08001516152690022DEE72346896911
S1134A60002030BC184700BF082100208CA00000A3
S1134A70204B1B685A78012A00D070471E4A1268DE
S1134A80516E490530B41AD4D16911F0800F0CBFAE
S1134A900321022102EBC1020C1D1569D06823F821
S1134AA0145020F08000D060D26803EB8100826B48
S1134AB01AB10B4493F85830C3B930BC7047106A2C
S1134AC0916A80B289B2884284BF94680919091A2C
S1134AD0D06989B220F080009981D061D169516A8E
S1134AE021F080015162526A0221DEE7816930BC03
S1134AF000201047082100208CA00000204B1B68D8
S1134B005A78012A00D070471E4A1268516E490330
S1134B1030B41AD4D16A11F0800F0CBF05210421DE
S1134B2002EBC1020C1D1569D06823F8145020F063
S1134B308000D060D26803EB8100826B1AB10B4411
S1134B4093F85830C3B930BC7047106B916B80B286
S1134B5089B2884284BF94680919091AD06A89B253
S1134B6020F080001982D062D16A516B21F080015B
S1134B705163526B0421DEE7816930BC0020104789
S1134B80082100208CA00000204B1B685A78012AC1
S1134B9000D070471E4A1268516E490130B41AD4CD
S1134BA0D16B11F0800F0CBF0721062102EBC1026B
S1134BB00C1D1569D06823F8145020F08000D060D3
S1134BC0D26803EB8100826B1AB10B4493F858301E
S1134BD0C3B930BC7047106C916C80B289B2884202
S1134BE084BF94680919091AD06B89B220F0800037
S1134BF09982D063D16B516C21F080015164526C65
S1134C000621DEE7816930BC00201047082100201E
S1134C108CA00000214B5B685A78012A00D07047B1
S1134C201F4A5268516E490730B41AD4D16881F0D2
S1134C308001C1F3C01102EBC1020C1D1569D068DB
S1134C4023F8145020F08000D060D2680A4603EBA9
S1134C5082018C6B1CB1134493F85830C3B930BC37
S1134C6070471069916980B289B2884284BF9468A0
S1134C700919091AD06889B220F080001981D0601E
S1134C80D168516921F08001516152690022DEE747
S1134C9023468969002030BC184700BF0821002042
S1134CA08CA00000204B5B685A78012A00D0704722
S1134CB01E4A5268516E490530B41AD4D16911F0B4
S1134CC0800F0CBF0321022102EBC1020C1D1569E8
S1134CD0D06823F8145020F08000D060D26803EB31
S1134CE08100826B1AB10B4493F85830C3B930BCBD
S1134CF07047106A916A80B289B2884284BF94680E
S1134D000919091AD06989B220F080009981D0610B
S1134D10D169516A21F080015162526A0221DEE7B1
S1134D20816930BC00201047082100208CA00000BD
S1134D30204B5B685A78012A00D070471E4A52689B
S1134D40516E490330B41AD4D16A11F0800F0CBFEC
S1134D500521042102EBC1020C1D1569D06823F85A
S1134D60145020F08000D060D26803EB8100826B85
S1134D701AB10B4493F85830C3B930BC7047106B68
S1134D80916B80B289B2884284BF94680919091A68
S1134D90D06A89B220F080001982D062D16A516B46
S1134DA021F080015163526B0421DEE7816930BC3C
S1134DB000201047082100208CA00000204B5B68D5
S1134DC05A78012A00D070471E4A5268516E490130
S1134DD030B41AD4D16B11F0800F0CBF0721062117
S1134DE002EBC1020C1D1569D06823F8145020F0A1
S1134DF08000D060D26803EB8100826B1AB10B444F
S1134E0093F85830C3B930BC7047106C916C80B2C1
S1134E1089B2884284BF94680919091AD06B89B28F
S1134E2020F080009982D063D16B516C21F0800115
S1134E305164526C0621DEE7816930BC00201047C2
S1134E40082100208CA00000214B9B685A78012A7D
S1134E5000D070471F4A9268516E490730B41AD483
S1134E60D16881F08001C1F3C01102EBC1020C1DB5
S1134E701569D06823F8145020F08000D060D268FF
S1134E800A4603EB82018C6B1CB1134493F858302F
S1134E90C3B930BC70471069916980B289B2884245
S1134EA084BF94680919091AD06889B220F0800077
S1134EB01981D060D168516921F080015161526932
S1134EC00022DEE723468969002030BC184700BF72
S1134ED0082100208CA00000204B9B685A78012AEE
S1134EE000D070471E4A9268516E490530B41AD4F6
S1134EF0D16911F0800F0CBF0321022102EBC10222
S1134F000C1D1569D06823F8145020F08000D0607F
S1134F10D26803EB8100826B1AB10B4493F85830CA
S1134F20C3B930BC7047106A916A80B289B28842B2
S1134F3084BF94680919091AD06989B220F08000E5
S1134F409981D061D169516A21F080015162526A1C
S1134F500221DEE7816930BC0020104708210020CF
S1134F608CA00000204B9B685A78012A00D070471F
S1134F701E4A9268516E490330B41AD4D16A11F0B2
S1134F80800F0CBF0521042102EBC1020C1D156921
S1134F90D06823F8145020F08000D060D26803EB6E
S1134FA08100826B1AB10B4493F85830C3B930BCFA
S1134FB07047106B916B80B289B2884284BF946849
S1134FC00919091AD06A89B220F080001982D062C6
S1134FD0D16A516B21F080015163526B0421DEE7E9
S1134FE0816930BC00201047082100208CA00000FB
S1134FF0204B9B685A78012A00D070471E4A926859
S1135000516E490130B41AD4D16B11F0800F0CBF2A
S11350100721062102EBC1020C1D1569D06823F893
S1135020145020F08000D060D26803EB8100826BC2
S11350301AB10B4493F85830C3B930BC7047106CA4
S1135040916C80B289B2884284BF94680919091AA4
S1135050D06B89B220F080009982D063D16B516CFF
S113506021F080015164526C0621DEE7816930BC75
S113507000201047082100208CA00000214BDB6891
S11350805A78012A00D070471F4AD268516E4907E6
S113509030B41AD4D16881F08001C1F3C01102EB9D
S11350A0C1020C1D1569D06823F8145020F080004B
S11350B0D060D2680A4603EB82018C6B1CB11344A6
S11350C093F85830C3B930BC70471069916980B205
S11350D089B2884284BF94680919091AD06889B2D0
S11350E020F080001981D060D168516921F08001DD
S11350F0516152690022DEE723468969002030BCF1
S1135100184700BF082100208CA00000204BDB685A
S11351105A78012A00D070471E4AD268516E490558
S113512030B41AD4D16911F0800F0CBF03210221CD
S113513002EBC1020C1D1569D06823F8145020F04D
S11351408000D060D26803EB8100826B1AB10B44FB
S113515093F85830C3B930BC7047106A916A80B272
S113516089B2884284BF94680919091AD06989B23E
S113517020F080009981D061D169516A21F08001C9
S11351805162526A0221DEE7816930BC0020104777
S1135190082100208CA00000204BDB685A78012AEB
S11351A000D070471E4AD268516E490330B41AD4F5
S11351B0D16A11F0800F0CBF0521042102EBC1025A
S11351C00C1D1569D06823F8145020F08000D060BD
S11351D0D26803EB8100826B1AB10B4493F8583008
S11351E0C3B930BC7047106B916B80B289B28842EE
S11351F084BF94680919091AD06A89B220F0800022
S11352001982D062D16A516B21F080015163526BD3
S11352100421DEE7816930BC00201047082100200A
S11352208CA00000204BDB685A78012A00D070471C
S11352301E4AD268516E490130B41AD4D16B11F0B0
S1135240800F0CBF0721062102EBC1020C1D15695A
S1135250D06823F8145020F08000D060D26803EBAB
S11352608100826B1AB10B4493F85830C3B930BC37
S11352707047106C916C80B289B2884284BF946884
S11352800919091AD06B89B220F080009982D06381
S1135290D16B516C21F080015164526C0621DEE720
S11352A0816930BC00201047082100208CA0000038
S11352B02DE9F041334C344D54F8206055F820501A
S11352C07078AC680428A4B248D0032803BF013422
S11352D0A4B200200120B2F5004F3CD8B3F5004F32
S11352E039D804FB02FCCCF3CF3CB2F5004F04FBED
S11352F003F308BF0CF1010C4FEAE33708BF1FFAB0
S11353008CFC48BB4B084FEAC30E0122D5F86480DD
S113531002FA0EF212EA080F24D08022696E02FA11
S11353200EFE1EEA010F29D02A685B0012F0180F46
S113533003F1010303D105EBC302C2F808C0DBB2D9
S1135340013305EBC3039F60AB6D23F08003AB65B2
S11353507480BDE8F0810120BDE8F0816400A4B24E
S11353600020B8E72B6801319B0605EBC10146BF5D
S11353704FEA5C038B60C1F808C0E5E75B000133CA
S1135380D9E700BF082100208CA000002DE9F04FD0
S1135390934B83B053F8203000930BB15F781FB167
S11353A0012003B0BDE8F08F8E4B019053F82040EC
S11353B023680E4623F01803B2782360236823F48D
S11353C0007323602368636D43F004036365009BEB
S11353D05A703378002B00F05A83F1684FF00109BA
S11353E089E0017ADB00002940F0D180616E4FF042
S11353F0100E0EFA03FE21EA0E016166691CC9B2A1
S113540004EBC10A4FF0020EDAF80CB02BF0040BD7
S1135410CAF80CB0DAF80CB04BF0080BCAF80CB0B0
S1135420D4F864B090F807A00EFA03FE4EEA0B0E0F
S1135430BAF1010FC4F864E000F0B180BCF1000FD0
S113544040F0B980D4F870C009FA01F141EA0C01C6
S11354502167616ED6F814E04FF0040C0CFA03FCDB
S113546021EA0C016166616E9EF803C009FA03FE2D
S113547021EA0E016166616E4FF0800E0EFA03FEA2
S1135480224421EA0E016166D16841F01001D16025
S1135490D16841F02001D160BCF1000F5FD1626E90
S11354A04021994022EA01026266D4F864C002797C
S11354B0202101FA03F343EA0C03636629462046DC
S11354C0FFF7F4F8F1682068884405F1100309FA3D
S11354D003F398F80620034323603AB16B1CDBB254
S11354E02268103309FA03F3134323600137337836
S11354F0FFB2BB4267D907EB87034FEA430801EBCE
S1135500080011F8135090F805C06B08BCF1000FA7
S11355102BD0216F09FA05F20A43226742786245CB
S11355204FEAC50204EB0201D1F80CE024D02EF0BE
S1135530040EC1F80CE0D1F80CE04EF0080EC1F8EE
S11355400CE0817900297FF44CAF616EDB004FF0F1
S1135550020C0CFA03FC21EA0C01616679E7616E26
S113556040229A400A4362669FE7226F09FA05F1D6
S113557022EA01022267D1E74EF0040EC1F80CE0E2
S1135580D1F80CE02EF0080EC1F80CE0D9E7D4F8FD
S113559064E01021994041EA0E0161662EE7BCF1F6
S11355A0000F00F02582D4F870C00AFA01F141EA34
S11355B00C0121674DE7D4F870C009FA01F12CEA17
S11355C00101216745E7074B019A53F8225073788C
S11355D0002B00F028814FF000084FF00109C7E0CC
S11355E0082100208CA000002A6F09FA01F313435C
S11355F02B67037A63454FEAC10200F0D28005EBC2
S1135600020EDEF80C3023F00403CEF80C30DEF882
S11356100C3043F00803CEF80C304FEACA034FF0C5
S1135620040BD5F864A090F809E00BFA03FB2A44B4
S11356302AEA0B0AC5F864A0D2F80CA04AF0100AB2
S1135640C2F80CA0D2F80CA04AF0200AC2F80CA0B0
S1135650D5F800A001F1100209FA02F242EA0A02A6
S11356602A60BEF1000F38D090F80EB04A1CD2B2B6
S1135670BBF1000F00F0CE80D5F870A009FA02FE4D
S11356804EEA0A0EC5F870E005EBC20EDC45DEF802
S11356900CA090F80AC02AF0040ACEF80CA0DEF898
S11356A00CA04AF0080ACEF80CA000F0A480BCF1CB
S11356B0000F00F0A480D5F864C04FF0020E0EFA7B
S11356C003FE2CEA0E0CC5F864C0D5F800C01032F5
S11356D009FA02F242EA0C022A607269D278002ABC
S11356E040F081806A6E4FF0400C0CFA03FC22EA11
S11356F00C026A66D5F864E090F807C020229A404C
S113570042EA0E026A66D5F864E009FA03F242EA54
S11357100E026A66BCF1000F5DD16A6E4FF0800C18
S11357200CFA03FC22EA0C026A668279002A46D14A
S11357304FF0100ED5F864C0C27A0EFA03F301F0EC
S1135740FE0A2CEA03036B6651462846FEF7AEFFB9
S113575033691F440AF10101C9B23A7B2846FEF7B6
S1135760A5FF08F1010873785FFA88F843455AD910
S113577033694FEA0817D819D95D90F80DC04FEA7C
S1135780510ABCF1000F7FF42FAF2B6F09FA01F21D
S113579023EA02032B67037A63454FEAC1027FF4CD
S11357A02EAFAB18D3F80CE04EF0040EC3F80CE0A7
S11357B0D3F80CE02EF0080EC3F80CE02DE74FF000
S11357C0100CD5F864E0C27A0CFA03F301F0FE0A77
S11357D043EA0E03B7E7D5F864C080229A4042EA50
S11357E00C026A66A1E7D5F864C040229A4042EAF6
S11357F00C026A667EE7BCF1000F3FF45CAFD5F89B
S113580064E04FF0020C0CFA03FC4CEA0E0CC5F8F1
S113581064C05AE7D5F870E009FA02FA2EEA0A0ED3
S1135820C5F870E030E77369616DDA7841F0020120
S11358306165002A51D1B2782368B1680198A2F158
S11358400402B2FA82F2520923F0200343EA42131B
S11358502360FEF7D5FEE26C8E49B378009D0A40C2
S11358606880042BE264A36800F0F480013880B2FD
S11358700B401843A0603378002B00F0C180019FD7
S11358800025F36805EB850203EB420013F81210C0
S1135890428800233846FFF70BFD01353378EDB21B
S11358A0AB42EED873787BB1019F002531692B019F
S11358B0CA183846C95C93885288FFF7F9FC013549
S11358C07378EDB2AB42F1D8002800F09D80009AC5
S11358D00023537003B0BDE8F08F1978002900F05D
S11358E0BE80E16F41F40041E1679978E06F019F68
S11358F01D79090201F4706120F470600143032FE3
S1135900E1678CBF02210421B5B1E06F5D7940F0FD
S11359100100E067002D40F0B580E06F20F010003A
S1135920E06798790128D4F8880014BF40F001009A
S113593020F00100C4F88800D879B0B1E06F1D7A76
S113594040F00200E067002D40F09780E06F20F007
S11359502000E067587A0128D4F8880014BF40F08A
S1135960020020F00200C4F88800022931D0987A9D
S1135970A8B1E06FDD7A40F00400E067002D77D134
S1135980E06F20F04000E067187B0128D4F888001D
S113599014BF40F0040020F00400C4F88800042977
S11359A017D1597BA9B1E16F987B41F00801E167F8
S11359B0E16F002858D121F08001E167D97B0129EA
S11359C0D4F888100CBF21F0080141F00801C4F894
S11359D088105B781BB1636D43F080036365616D70
S11359E0530103F0600321F060021343636522E76F
S11359F0D4F870C00AFA01F12CEA0101216728E504
S1135A007378002B7FF450AFA06EF178009B32794D
S1135A101B7820F03F0001F03F010143A166A16E15
S1135A20920121F0C001D2B20A43A266626D42F033
S1135A3001026265626D42F0080262652268DB0061
S1135A4022F0180203F0180313430020236003B06C
S1135A50BDE8F08F0B4043EA5000A0600BE7E16F14
S1135A6021F40041E16740E741F08001E167A5E7E7
S1135A70E06F40F04000E06786E7E06F40F0200010
S1135A80E06767E7E06F40F01000E06749E725460C
S1135A909DE500BF0000FFFF70B40E4C9DF80C5054
S1135AA054F8206071B1013952FA81F4023B013A91
S1135AB012F8011F33F8020F013106EBC1019442C1
S1135AC08860F5D11DB1B36D43F08003B365002048
S1135AD070BC70478CA000005AB11030084B10B451
S1135AE053F82040146003EB80035DF8044B196005
S1135AF07047034A00F1100302EB830319607047F7
S1135B000080FF1F00F01F0101234009024A8B405F
S1135B1042F82030704700BF00E100E04309203321
S1135B2000F01F000122034902FA00F041F82300AB
S1135B30704700BF00E100E0044A1368002B03DD56
S1135B40013B136003B962B6704700BF18210020FF
S1135B5072B6024A1368013313607047182100209B
S1135B60002808DB00F1604000F561400901C9B27A
S1135B7080F800137047C0B2C0F38102012A0DD02F
S1135B8010B40A4B0A4C0901022A18BF234600F03C
S1135B900300C9B219545DF8044B7047054B090161
S1135BA000F00300C9B21954704700BF1CED00E0B7
S1135BB020ED00E018ED00E070B5274D064682B0F8
S1135BC00C46452005EB8601FDF7B6FE02A9002030
S1135BD041F8040DFDF7B0FE204855F82610826800
S1135BE0019B42F0020203EB51038260B3FBF1F329
S1135BF01A462BB1013A00BF00BF00BF002AF9D1F9
S1135C00164A916821F002019160916841F0010106
S1135C1091602BB1013B00BF00BF00BF002BF9D145
S1135C200E4B20789A68617822F008029A609A688C
S1135C30002814BF0820002002439A609A6822F0CA
S1135C4004029A6000299A6814BF042100210A43BF
S1135C509A6002B070BD00BF1C2100200070034098
S1135C602DE9F04782B0704B019369B9D37C002BC6
S1135C7040F0A7806D4B9C6A24F002049C62D3F828
S1135C8028C00F460C460FE00C0104F1804303F5D5
S1135C905C33D67C9D6A25F002059D62002ED3F804
S1135CA028C014BF022700270E4660491378154602
S1135CB08046507847EA0C020F199B00BA62BA6A10
S1135CC022F00C02BA62BA6A03F00C0313430128EF
S1135CD0BB6254D0B31C1B016A68CA50534A2B7A66
